:0400000080312B28F8
:1000080080312000911D090091112400141C28281A
:1000180014191E281108F000941E29281830760299
:10002800031829287608203E860087017008810079
:10003800F60A2928941A21281108941E2528161B27
:100048002928760891002928F60115160900880143
:1000580080312E282030F6018400003085002030C1
:100068008031D220803120003928F201902080315F
:1000780020008E160000000020008E1500000000F1
:1000880020008E110000000020000C08F8397204CE
:100098008C008E12000000000730F20AF205720888
:1000A80072077207F300203ECC208031F41F5F28CE
:1000B80020000E15612820000E11F4350E160000E0
:1000C8000000C6208031031C5A287308213ECC202A
:1000D8008031F41F722820000E15742820000E119C
:1000E800F4350E1600000000C6208031031C6D2870
:1000F8007308223ECC208031F41F852820000E157D
:10010800872820000E11F4350E1600000000C620C6
:10011800803103183C288028703021009900230082
:100128008C018E0120008C018E01F83021008C009A
:10013800C3308E0024008C0103308E007F302100F4
:1001480095003F3027008C008E00F1017108203E99
:100158008600203087018101F10A7102031CAA2858
:1001680018302000AA00AD00210066309115240047
:10017800920030309700013096003E309500C03034
:100188008B000800200008300E12F50A75020800DE
:10019800860087010108F400F50108006400800169
:0801A8000131890BD32800345A
:00000001FF
